:100A17004249454E20534F3A200035395F56315FE2
:100A27003030302E303000C0F9A4B0999282F8806F
:010A3700902E
:060AD700010E1E010D00DE
:0C099D007F03120A56120A487F057E00F4
:1009A900E4FDFCC3ED9FEC9E5015E4FBFA0BBB0084
:0F09B900010AEB64784A70F50DBD00010C80E473
:0109C800220C
:100A5600EF131313541F1392B7EF1313543F13924C
:0C0A6600B6EFC3131392B5EF1392B42245
:100A3800E9C4540FFF120A56120A48AF01120A56A7
:0E0A4800D2A77F017E001209A9C2A70209A948
:0E0ABB00A907C2A6120A387F027E000209A90E
:0E0AC900A907D2A6120A387F027E000209A9F0
:100935007F327E001209A9C2A6C2A712099D12091B
:100945009D12099D7F0212099F7F28120ABB7F0C09
:10095500120ABB7F06120ABB7F01120ABB7F0A7E01
:04096500000209A9DA
:100AA700EF7007ED2480F50A8005ED24C0F50AAF45
:040AB7000A020ABB6A
:1009F2008B0A8A0B890CAB0AAA0BA90C120A8E600D
:100A020013050CE50C7002050B14F9120A8EFF1285
:050A12000AC980E22288
:100A72008F0FE50F75F00A842430FF120AC9E50FC3
:0C0A820075F00A84E5F02430FF020AC978
:10096900E50E75F00A84FFE50E75F00A84A9F0C258
:10097900A0C2A1EF900A2E93F580D2A07F027E003B
:100989001209A9C2A0C2A1AF01EF93F580D2A17F3C
:04099900020209A9A4
:1009C900D2A0D2A17580FF1209A5E4FDFF120AA7E2
:1009D9007BFF7A0A79171209F2E4FD7F01120AA74F
:0909E9007BFF7A0A79210209F270
:050ADE00D292C2932238
:050AE300D293C2922233
:10088C0020962EE50D702A7F1EFE1209A9209621B6
:10089C00750D01E50EC394635002050E1209C9E4EF
:1008AC00F5091209690509E509C3946440F4120AB3
:1008BC00DE20972EE50D702A7F1EFE1209A92097C7
:1008CC0021750D01E50ED394004002150E1209C9D5
:1008DC00E4F5091209690509E509C3946440F412A9
:0B08EC000AE3309606309703E4F50D98
:0108F70022DE
:1008F80075B0FF7590FFE4F5A0F5B0D2A0D2A1C203
:1009080092C2937FC8FE1209A91209357F647E003E
:100918001209A91209C9E4F5081209690508E508C8
:0D092800C3946440F412096912088C80F831
:03000000020800F3
:0C080000787FE4F6D8FD75810F020847F0
:100A8E00BB010689828A83E0225002E722BBFE0266
:090A9E00E32289828A83E4932299
:10080C000208F8E493A3F8E493A34003F68001F202
:10081C0008DFF48029E493A3F85407240CC8C333ED
:10082C00C4540F4420C8834004F456800146F6DFBC
:10083C00E4800B0102040810204080900AD7E47E6B
:10084C00019360BCA3FF543F30E509541FFEE493B1
:10085C00A360010ECF54C025E060A840B8E493A378
:10086C00FAE493A3F8E493A3C8C582C8CAC583CAA3
:10087C00F0A3C8C582C8CAC583CADFE9DEE780BE5B
:010ADD000018
:00000001FF
