:0F09A7000A09C0F9A4B0999282F8809001080063
:1008F300E4FDFCC3ED9FEE6480F8EC648098501532
:10090300E4FBFA0BBB00010AEB64784A70F50DBDFA
:0509130000010C80DE74
:0109180022BC
:100959007590FFC2B0C2B27F017E001208F3D2B215
:0B09690020B3FDC2B1AF90D2B1D2B0FC
:010974002260
:100919001209597E007C017DF412088C1C7DFF129E
:0F092900089ED3EF9463EE940040027F638F0823
:01093800229C
:10093900C2A0C2A174092DF8E6F580BF0104D2A0B6
:100949008002D2A17F057E001208F3C2A0C2A122B3
:10097500EF75F00A84FEEF75F00A84A9F0AD067FE5
:0B09850001120939AD017F020209399F
:10099000120919E508C394234004D2A78002C2A714
:0709A000AF0812097580E9A0
:03000000020800F3
:0C080000787FE4F6D8FD758112020847ED
:10088C00EF8DF0A4A8F0CF8CF0A428CE8DF0A42E80
:02089C00FE223A
:10089E00BC000BBE0029EF8DF084FFADF022E4CC3E
:1008AE00F875F008EF2FFFEE33FEEC33FCEE9DEC07
:1008BE00984005FCEE9DFE0FD5F0E9E4CEFD22ED4D
:1008CE00F8F5F0EE8420D21CFEADF075F008EF2F97
:1008DE00FFED33FD4007985006D5F0F222C398FD88
:0508EE000FD5F0EA2225
:10080C00020990E493A3F8E493A34003F68001F269
:10081C0008DFF48029E493A3F85407240CC8C333ED
:10082C00C4540F4420C8834004F456800146F6DFBC
:10083C00E4800B01020408102040809009A7E47E9C
:10084C00019360BCA3FF543F30E509541FFEE493B1
:10085C00A360010ECF54C025E060A840B8E493A378
:10086C00FAE493A3F8E493A3C8C582C8CAC583CAA3
:10087C00F0A3C8C582C8CAC583CADFE9DEE780BE5B
:0109B6000040
:00000001FF
