:100A8B004249454E20534F3A2000C0F9A4B09992E9
:040A9B0082F88090CD
:060ABB00010E1E010D00FA
:0C099D007F03120A0C1209FE7F057E0089
:1009A900E4FDFCC3ED9FEC9E5015E4FBFA0BBB0084
:0F09B900010AEB64784A70F50DBD00010C80E473
:0109C800220C
:100A0C00EF131313541F139287EF1313543F1392C6
:0C0A1C0086EFC313139285EF139284221F
:1009EE00E9C4540FFF120A0C1209FEAF01120A0CD1
:0E09FE00D2A17F017E001209A9C2A10209A99F
:0E0A9F00A907C2A01209EE7F027E000209A97B
:0E0AAD00A907D2A01209EE7F027E000209A95D
:100935007F327E001209A9C2A0C2A112099D120927
:100945009D12099D7F0212099F7F28120A9F7F0C25
:10095500120A9F7F06120A9F7F01120A9F7F0A7E55
:04096500000209A9DA
:100A7700EF7007ED2480F50A8005ED24C0F50AAF75
:040A87000A020A9FB6
:1009C9008B0A8A0B890CAB0AAA0BA90C120A5E6066
:1009D90013050CE50C7002050B14F9120A5EFF12DF
:0509E9000AAD80E222CE
:100A28008F0FE50F75F00A842430FF120AADE50F29
:0C0A380075F00A84E5F02430FF020AADDE
:10096900E50E75F00A84FFE50E75F00A84A9F0C258
:10097900A6C2A7EF900A9593F5B0D2A67F027E0092
:100989001209A9C2A6C2A7AF01EF93F5B0D2A77FFA
:04099900020209A9A4
:100A4400D2A6D2A775B0FF1209A57D03E4FF120A4E
:0A0A5400777BFF7A0A798B0209C94B
:050AC200D292C2932254
:050AC700D293C292224F
:10088C0020962EE50D702A7F1EFE1209A9209621B6
:10089C00750D01E50EC394635002050E120A44E473
:1008AC00F5091209690509E509C3946440F4120AB3
:1008BC00C220972EE50D702A7F1EFE1209A92097E3
:1008CC0021750D01E50ED394004002150E120A4459
:1008DC00E4F5091209690509E509C3946440F412A9
:0B08EC000AC7309606309703E4F50DB4
:0108F70022DE
:1008F80075B0FF7590FFE4F5A0F5B0D2A6D2A7C2F7
:1009080092C2937FC8FE1209A91209357F647E003E
:100918001209A9120A44E4F5081209690508E5084C
:0D092800C3946440F412096912088C80F831
:03000000020800F3
:0C080000787FE4F6D8FD75810F020847F0
:100A5E00BB010689828A83E0225002E722BBFE0296
:090A6E00E32289828A83E49322C9
:10080C000208F8E493A3F8E493A34003F68001F202
:10081C0008DFF48029E493A3F85407240CC8C333ED
:10082C00C4540F4420C8834004F456800146F6DFBC
:10083C00E4800B0102040810204080900ABBE47E87
:10084C00019360BCA3FF543F30E509541FFEE493B1
:10085C00A360010ECF54C025E060A840B8E493A378
:10086C00FAE493A3F8E493A3C8C582C8CAC583CAA3
:10087C00F0A3C8C582C8CAC583CADFE9DEE780BE5B
:010AC1000034
:00000001FF
