:100800004249454E20534F3A200048452054484F16
:100810004E47204E48554E4700534D4152542050AC
:1008200041524B494E4700C0F9A4B0999282F880DA
:100830009039325F44315F3835392E34350000004D
:1008400036365F48335F3835342E32330000003996
:10085000355F58325F3730342E3634000000353380
:100860005F41325F3332332E333900000038335F5B
:100870005A315F3637342E333500000039375F5830
:10088000375F3332352E363700000038395F4B3151
:100890005F3837372E333000000039365F53365F0C
:1008A0003338342E323900000036345F4D325F3138
:1008B00039342E353800000035375F4E365F37311A
:1008C000382E343300000035335F54395F3232370D
:1008D0002E353800000035365F58355F3934392EF3
:1008E000393000000039315F4E345F3832312E31FB
:1008F0003800000035335F48355F3138312E3339E9
:1009000000000035375F50355F3536342E39310001
:10091000000037345F46365F3436332E33360000FE
:100920000039345F4B325F3732332E3931000000EB
:1009300036315F58345F3236372E36390000003793
:10094000355F4B395F3332342E3937000000373191
:100950005F42345F3934312E313400000037315F6B
:1009600050355F3136372E333700000038385F4D51
:10097000345F3737312E373300000037365F54335A
:100980005F3337312E323700000036365F58395F1B
:100990003336392E383400000037385F59375F342A
:1009A00037302E333800000035395F56385F313923
:1009B000332E313600000035385F45335F39313131
:1009C0002E393700000037385F5A325F3439342E01
:1009D000353800000039305F54395F3335372E38F1
:1009E0003000000035315F44395F3836382E3434FA
:1009F00000000039335F4D325F3430302E36350021
:100A0000000036315F54315F3833392E3433000003
:100A10000038335F46395F3230382E3930000000FD
:100A200037305F56345F3235362E353700000036AA
:100A3000315F58395F3130302E38360000003731A1
:100A40005F55315F3231342E353600000037305F6C
:100A500048315F3334362E383200000035365F437C
:100A6000385F3933352E313800000038355F453373
:100A70005F3737352E373000000038365F46355F38
:100A80003634302E383700000037385F47395F384A
:100A900037332E393800000036335F4C375F373834
:100AA000372E393300000037345F54395F35363222
:100AB0002E323500000036365F48325F3434362E31
:100AC000313200000038395F58345F3730322E330E
:100AD0003800000035315F43315F3333342E313815
:100AE00000000035335F4D325F3632362E34300031
:100AF000000036385F55345F3635322E323600000E
:100B00000039385F59385F3334382E3730000000F1
:0F0B100037375F47325F3139392E3934000000F3
:090E1000010F1E010E00010D008E
:0C0D20007F03120D8F120D817F057E00F5
:100D2C00E4FDFCC3ED9FEC9E5015E4FBFA0BBB00FD
:0F0D3C00010AEB64784A70F50DBD00010C80E4EC
:010D4B002285
:100D8F00EF131313541F1392B7EF1313543F139210
:0C0D9F00B6EFC3131392B5EF1392B42209
:100D7100E9C4540FFF120D8F120D81AF01120D8FB7
:0E0D8100D2A77F017E00120D2CC2A7020D2CFE
:0E0DF400A907C2A6120D717F027E00020D2C0F
:0E0E0200A907D2A6120D717F027E00020D2CF0
:100CB8007F327E00120D2CC2A6C2A7120D20120D83
:100CC80020120D207F02120D227F28120DF47F0CB6
:100CD800120DF47F06120DF47F01120DF47F0A7EC7
:040CE80000020D2CCD
:100DE000EF7007ED2480F50A8005ED24C0F50AAF09
:040DF0000A020DF4F2
:100D4C008B0A8A0B890CAB0AAA0BA90C120DC76073
:100D5C0013050CE50C7002050B14F9120DC7FF12EC
:050D6C000E0280E222EE
:100DAB008F10E51075F00A842430FF120E02E51047
:0C0DBB0075F00A84E5F02430FF020E02FF
:100CEC00E50F75F00A84FFE50F75F00A84A9F0C2D0
:100CFC00A0C2A1EF90082793F580D2A07F027E00BE
:100D0C00120D2CC2A0C2A1AF01EF93F580D2A17F2E
:040D1C0002020D2C96
:100C73007F01120DF4D2A0D2A17580FF120D28E4DA
:100C8300FDFF120DE07BFF7A087900120D4CE4FDA5
:100C93007F01120DE0E50E75F00FA42431F97408FD
:100CA30035F0FA7BFF120D4C050EE50EC39432406E
:050CB30003E4F50E2230
:050E1A00D292C29322F8
:050E1F00D293C29222F3
:100BAB0020962EE50D702A7F1EFE120D2C2096210D
:100BBB00750D01E50FC394635002050F120C73E41E
:100BCB00F509120CEC0509E509C3946440F4120E07
:100BDB001A20972EE50D702A7F1EFE120D2C2097E2
:100BEB0021750D01E50FD394004002150F120C7304
:100BFB00E4F509120CEC0509E509C3946440F41201
:0B0C0B000E1F309606309703E4F50D35
:010C160022BB
:100C170075B0FF7590FFE4F5A0F5B0D2A0D2A1752D
:100C270080FFC292C2937FC8FE120D2C120CB87FB0
:100C3700647E00120D2CE4FDFF120DE07BFF7A08A5
:100C4700790A120D4CE4FD7F01120DE07BFF7A0853
:100C57007919120D4CE4F508120CEC0508E508C3E8
:0C0C6700946440F4120CEC120BAB80F80B
:03000000020B1FD1
:0C0B1F00787FE4F6D8FD758110020B66AB
:100DC700BB010689828A83E0225002E722BBFE022A
:090DD700E32289828A83E493225D
:100B2B00020C17E493A3F8E493A34003F68001F2BD
:100B3B0008DFF48029E493A3F85407240CC8C333CB
:100B4B00C4540F4420C8834004F456800146F6DF9A
:100B5B00E4800B0102040810204080900E10E47E0C
:100B6B00019360BCA3FF543F30E509541FFEE4938F
:100B7B00A360010ECF54C025E060A840B8E493A356
:100B8B00FAE493A3F8E493A3C8C582C8CAC583CA81
:100B9B00F0A3C8C582C8CAC583CADFE9DEE780BE39
:010E190000D8
:00000001FF
