:100800004249454E20534F3A200048452054484F16
:100810004E47204E48554E4700534D4152542050AC
:1008200041524B494E4700C0F9A4B0999282F880DA
:100830009039325F44315F3835392E34350000004D
:1008400036365F48335F3835342E32330000003996
:10085000355F58325F3730342E3634000000353380
:100860005F41325F3332332E333900000038335F5B
:100870005A315F3637342E333500000039375F5830
:10088000375F3332352E363700000038395F4B3151
:100890005F3837372E333000000039365F53365F0C
:1008A0003338342E323900000036345F4D325F3138
:1008B00039342E353800000035375F4E365F37311A
:1008C000382E343300000035335F54395F3232370D
:1008D0002E353800000035365F58355F3934392EF3
:1008E000393000000039315F4E345F3832312E31FB
:1008F0003800000035335F48355F3138312E3339E9
:1009000000000035375F50355F3536342E39310001
:10091000000037345F46365F3436332E33360000FE
:100920000039345F4B325F3732332E3931000000EB
:1009300036315F58345F3236372E36390000003793
:10094000355F4B395F3332342E3937000000373191
:100950005F42345F3934312E313400000037315F6B
:1009600050355F3136372E333700000038385F4D51
:10097000345F3737312E373300000037365F54335A
:100980005F3337312E323700000036365F58395F1B
:100990003336392E383400000037385F59375F342A
:1009A00037302E333800000035395F56385F313923
:1009B000332E313600000035385F45335F39313131
:1009C0002E393700000037385F5A325F3439342E01
:1009D000353800000039305F54395F3335372E38F1
:1009E0003000000035315F44395F3836382E3434FA
:1009F00000000039335F4D325F3430302E36350021
:100A0000000036315F54315F3833392E3433000003
:100A10000038335F46395F3230382E3930000000FD
:100A200037305F56345F3235362E353700000036AA
:100A3000315F58395F3130302E38360000003731A1
:100A40005F55315F3231342E353600000037305F6C
:100A500048315F3334362E383200000035365F437C
:100A6000385F3933352E313800000038355F453373
:100A70005F3737352E373000000038365F46355F38
:100A80003634302E383700000037385F47395F384A
:100A900037332E393800000036335F4C375F373834
:100AA000372E393300000037345F54395F35363222
:100AB0002E323500000036365F48325F3434362E31
:100AC000313200000038395F58345F3730322E330E
:100AD0003800000035315F43315F3333342E313815
:100AE00000000035335F4D325F3632362E34300031
:100AF000000036385F55345F3635322E323600000E
:100B00000039385F59385F3334382E3730000000F1
:0F0B100037375F47325F3139392E3934000000F3
:0F0E9200020B05DCC100010A1E01090001080066
:0C0DAC007F03120E1B120E0D7F057E004F
:100DB800E4FDFCC3ED9FEC9E5015E4FBFA0BBB0071
:0F0DC800010AEB64784A70F50DBD00010C80E460
:010DD70022F9
:100E1B00EF131313541F1392B7EF1313543F139283
:0C0E2B00B6EFC3131392B5EF1392B4227C
:100DFD00E9C4540FFF120E1B120E0DAF01120E1B84
:0E0E0D00D2A77F017E00120DB8C2A7020DB859
:0E0EA200A907C2A6120DFD7F027E00020DB848
:0E0EB000A907D2A6120DFD7F027E00020DB82A
:100D17007F327E00120DB8C2A6C2A7120DAC120D0B
:100D2700AC120DAC7F02120DAE7F28120EA27F0C03
:100D3700120EA27F06120EA27F01120EA27F0A7E5A
:040D470000020DB8E1
:100E6D00EF7007ED2480F50F8005ED24C0F50FAF71
:040E7D000F020EA2B0
:100DD8008B0F8A108911AB0FAA10A911120D7F6011
:100DE800130511E5117002051014F9120D7FFF1299
:050DF8000EB080E222B4
:100E37008F12E51275F00A842430FF120EB0E51206
:0C0E470075F00A84E5F02430FF020EB0C4
:100D4B00E50A75F00A84FFE50A75F00A84A9F0C27A
:100D5B00A0C2A1EF90082793F580D2A07F027E005E
:100D6B00120DB8C2A0C2A1AF01EF93F580D2A17F43
:040D7B0002020DB8AB
:100CD2007F01120EA2D2A0D2A17580FF120DB4E440
:100CE200FDFF120E6D7BFF7A087900120DD8E4FD2C
:100CF2007F01120E6DE50975F00FA42431F9740815
:100D020035F0FA7BFF120DD80509E509C39432408C
:050D120003E4F50922D5
:0A0EBE00E4FEEEC39F50030E80F81F
:010EC8002207
:100E5300758911758CB1758AE0758DFA758B24D2FD
:0A0E6300A9D2ABD2AFD28CC28E220E
:03000B00020C756F
:100C7500C0E0C0D075D000C000C002C003C004C031
:100C850005C006C007758CB1758AE0D200D294AE56
:100C95000BAF0CAB07AA06E4C39BFFE49AFE7401F5
:100CA5009400FDE49400FC7808120D988F8DAF0C2C
:100CB500AB07E4C39BFF8F8BD28ED007D006D00540
:0D0CC500D004D003D002D000D0D0D0E03257
:03001B00020EC909
:070EC900C28EC294C2003288
:070ED000750B08750C982258
:0A0E8100120ED07FDC7E05120DB8C2
:070E8B00750B03750C20221A
:100BAB0020972EE508702A7F1EFE120DB820972184
:100BBB00750801E50AC394635002050A120CD2E4CE
:100BCB00F50E120D4B050EE50EC3946440F4120E98
:100BDB008120962EE508702A7F1EFE120DB82096F6
:100BEB0021750801E50AD394004002150A120CD2B4
:100BFB00E4F50E120D4B050EE50EC3946440F41292
:0B0C0B000E81309706309603E4F508D8
:010C160022BB
:100C170075B0FF7590FFE4F5A0F5B0D2A0D2A1752D
:100C270080FF120E53120E8B7FC8FE120DB8120DE5
:100C3700177F647E00120DB8E4FDFF120E6D7BFF77
:100C47007A08790A120DD8E4FD7F01120E6D7BFF39
:100C57007A087919120DD8E4F50D120D4B050DE53B
:0E0C67000DC3946440F4120D4B120BAB80F8D9
:03000000020B1FD1
:0C0B1F00787FE4F6D8FD758120020B669B
:100D7F00BB010689828A83E0225002E722BBFE0272
:090D8F00E32289828A83E49322A5
:100D9800E86010ECA2E713FCED13FDEE13FEEF1371
:040DA800FFD8F0225E
:100B2B00020C17E493A3F8E493A34003F68001F2BD
:100B3B0008DFF48029E493A3F85407240CC8C333CB
:100B4B00C4540F4420C8834004F456800146F6DF9A
:100B5B00E4800B0102040810204080900E92E47E8A
:100B6B00019360BCA3FF543F30E509541FFEE4938F
:100B7B00A360010ECF54C025E060A840B8E493A356
:100B8B00FAE493A3F8E493A3C8C582C8CAC583CA81
:100B9B00F0A3C8C582C8CAC583CADFE9DEE780BE39
:010EA1000050
:00000001FF
