:1008000043484F20434F4E2054524F4E4720202004
:100810000020202020202020202020202020200018
:100820004249454E20534F3A200048452054484FF6
:100830004E47204E48554E4700534D41525420508C
:1008400041524B494E470039325F44315F383539A8
:100850002E343500000036365F48335F3835342E8D
:10086000323300000039355F58325F3730342E366E
:100870003400000035335F41325F3332332E333979
:1008800000000038335F5A315F3637342E3335007D
:10089000000039375F58375F3332352E3637000066
:1008A0000038395F4B315F3837372E333000000066
:1008B00039365F53365F3338342E32390000003614
:1008C000345F4D325F3139342E3538000000353712
:1008D0005F4E365F3731382E343300000035335FDA
:1008E00054395F3232372E353800000035365F58C4
:1008F000355F3934392E393000000039315F4E34DC
:100900005F3832312E313800000035335F48355FB3
:100910003138312E333900000035375F50355F35BF
:1009200036342E393100000037345F46365F3436B6
:10093000332E333600000039345F4B325F373233A9
:100940002E393100000036315F58345F3236372E91
:10095000363900000037355F4B395F3332342E397A
:100960003700000037315F42345F3934312E313483
:1009700000000037315F50355F3136372E33370096
:10098000000038385F4D345F3737312E3733000081
:100990000037365F54335F3337312E323700000073
:1009A00036365F58395F3336392E38340000003719
:1009B000385F59375F3437302E333800000035390F
:1009C0005F56385F3139332E313600000035385FDD
:1009D00045335F3931312E393700000037385F5ADF
:1009E000325F3439342E353800000039305F5439E5
:1009F0005F3335372E383000000035315F44395FC2
:100A00003836382E343400000039335F4D325F34CD
:100A100030302E363500000036315F54315F3833C8
:100A2000392E343300000038335F46395F323038B6
:100A30002E393000000037305F56345F3235362EA5
:100A4000353700000036315F58395F3130302E388D
:100A50003600000037315F55315F3231342E353684
:100A600000000037305F48315F3334362E383200B3
:100A7000000035365F43385F3933352E313800009A
:100A80000038355F45335F3737352E37300000008B
:100A900038365F46355F3634302E38370000003741
:100AA000385F47395F3837332E3938000000363326
:100AB0005F4C375F3738372E393300000037345FEB
:100AC00054395F3536322E323500000036365F48F5
:100AD000325F3434362E313200000038395F5834FA
:100AE0005F3730322E333800000035315F43315FDD
:100AF0003333342E313800000035335F4D325F36EA
:100B000032362E343000000036385F55345F3635CB
:100B1000322E323600000039385F59385F333438AE
:100B20002E373000000037375F47325F3139392EBA
:050B3000393400000053
:100DF20001151E021A000002130000021C03200249
:100E02001E03200216000002180000C100C10101E9
:100E120008FF011200010900020A0101020C01018E
:060E2200040E00000000B8
:0E0E5D00AF21120D44AF21120F5D7F057E0004
:100E6B00E4FDFCC3ED9FEC9E5015E4FBFA0BBB00BD
:0F0E7B00010AEB64784A70F50DBD00010C80E4AC
:010E8A002245
:0F101600EF7006ED24FF92A622ED24FF92A42294
:100D4400EF701CED131313541F1392B7ED131354C8
:100D54003F1392B6EDC3131392B5ED1392B422ED83
:100D6400131313541F1392B3ED1313543F1392B27E
:0B0D7400EDC3131392B1ED1392B022F7
:100F5D00EF700CD2A77F01FE120E6BC2A7800BD2D1
:100F6D00A57F017E00120E6BC2A57F017E00020ED1
:010F7D006B08
:100F39008B26A907121016E526C4540FFD120D447D
:100F4900120F5DAF01AD26120D44120F5D7F027EB7
:040F590000020E6B19
:07102500AB05E4FD020F39E9
:07102C00AB057D01020F3945
:020CF7008F214B
:100CF9007F327E00120E6BE4FDAF21121016E52142
:100D09007004C2A78002C2A5E4F97D03120E5D0931
:100D1900B903F77D02120E5D7D28AF211210257DE2
:100D29000CAF211210257D06AF211210257D01AFD0
:0B0D3900211210257F0A7E00020E6BC5
:100FB7008F228B23ED7007E5232480FD8007E5232F
:090FC70024C0FDAF221210252206
:040E8B007BFFE4FF06
:100E8F008F228B238A248925AB23AA24A925120F0D
:100E9F00E960150525E5257002052414F9120FE9FF
:090EAF00FDAF2212102C80E0229C
:040F10008F228D237C
:100F1400E4FFE523C3940A400974F62523F5230F5F
:100F240080F0EF2430FDAF2212102CE5232430FD95
:050F3400AF2202102CA9
:100DBA00E50865156031851508E4FBFD7F01120F12
:100DCA00B77BFF7A0879007F01120E8FE4FB7D0161
:100DDA007F01120FB7AD157F01120F107BFF7A0842
:070DEA0079117F01120E8F49
:010DF10022DF
:100D7F007D01E4FF121025E4FBFDFF120FB77A0887
:100D8F007920120E8BE4FB7D01FF120FB7E5127570
:100D9F00F00FA42447F9740835F0FA120E8B0512E0
:0B0DAF00E512C394324003E4F5122269
:100F9D00A2AFE433FEC2AFEF70068C1C8D1D800432
:090FAD008C1E8D1FEE24FF92AF93
:010FB6002218
:020EE500AB0759
:100EE7007D987C08120F9DA2AFE433FFC2AFEB7071
:100EF7000A751627751710D20080087518277519F7
:080F070010D201EF24FF92AFAC
:010F0F0022BF
:020F7E00AB07BF
:100F80007D207C03120F9DA2AFE433FFC2AFEB7054
:0C0F900004C2008002C201EF24FF92AFF7
:010F9C002232
:100FD000C294C295E58954F04401F589758CFF757A
:090FE0008A9CD2A9D2AFD28C2266
:03000B00020BC124
:040BC100C0E0C0D000
:100BC500758CFF758A9C74642514F514E43513F54A
:100BD50013C3E5149420E513944E400A751300756C
:100BE5001400D294D295C3E514951DE513951C40C8
:100BF50002C294C3E514951FE513951E4002C295E4
:100C05000509E509C3940A4037750900051BE51B6D
:100C15007002051A300013D3E5179400E516940009
:100C25004008E517151770021516300113D3E5199D
:100C35009400E51894004008E51915197002151877
:050C4500D0D0D0E03228
:100E2900E4FFFAA2AF33FEC2AF300007E51745165B
:100E390070010F300108E519451870027A01EE2496
:100E4900FF92AFEF6005E4FF120F7EEA60057F01B4
:030E5900120F7EF7
:010E5C002273
:020EB8008F2188
:100EBA00E4FFE521700CE515D39400401015150FD9
:100ECA00800BE515C39463500405157F01EF600399
:0B0EDA00120DBA120D7FAF21020EE5D1
:100C4A00A2AFE433C2AFAB1BAA1A24FF92AF740A55
:100C5A002FF8E66D600DA605EF25E0240EF8A60232
:100C6A0008A603EF25E0240EF8E6F58308E6F582E8
:100C7A00C3EB9582FBEA9583FAC3EB941EEA9400D0
:100C8A004014740C2FF8E66D600CA605740C2FF84E
:060C9A00E67003120EB823
:010CA0002231
:10100200A296E433FDE4FF120C4AA297E433FD7F7B
:0410120001020C4A81
:100CA100D296D2977590FFE4F5A0F5B0120FD0E47B
:100CB100FF120F7E7F01120F7E7FC87E00120E6B26
:100CC100E4FF120CF77F01120CF7E4FBFDFF120F9A
:100CD100B77A08792A120E8BE4FB7D01FF120FB758
:100CE1007BFF7A087939E4FF120E8F120DBA1210C8
:060CF10002120E2980F83A
:03000000020B35BB
:0C0B3500787FE4F6D8FD758126020B7C69
:100FE900BB010689828A83E0225002E722BBFE0206
:090FF900E32289828A83E4932239
:100B4100020CA1E493A3F8E493A34003F68001F21D
:100B510008DFF48029E493A3F85407240CC8C333B5
:100B6100C4540F4420C8834004F456800146F6DF84
:100B7100E4800B0102040810204080900DF2E47E15
:100B8100019360BCA3FF543F30E509541FFEE49379
:100B9100A360010ECF54C025E060A840B8E493A340
:100BA100FAE493A3F8E493A3C8C582C8CAC583CA6B
:100BB100F0A3C8C582C8CAC583CADFE9DEE780BE23
:010E280000C9
:00000001FF
